:040000008031A9287A
:100008007E1480310B1F09280A28A7282E00191EE4
:100018000E280F281A280F1E122813281A28210024
:100028006B088A006A080A008031A728991E1D28D3
:100038001E288F288F1E212822288F282200190881
:10004800F9007908FB0070282100400803192D28C1
:100058002F28013030280030F9007908C000400C02
:100068002000031C161003181614862821004108C6
:1000780003193F284128013042280030F900790847
:10008800C100410C2000031C961003189614862802
:100098002100420803195128532801305428003000
:1000A800F9007908C200420C2000031C161103183D
:1000B800161586282100430803196328652801308E
:1000C80066280030F9007908C300430C2000031C9F
:1000D80096110318961586287B08F900FA017A0804
:1000E800003A0319782886287908613A03192828DC
:1000F800033A03193A28013A03194C28073A031915
:100108005E2886282E008F12210069088A00680858
:100118000A008031A728171C922893289B280D1CB9
:10012800962897289B288631E4268031A728971C93
:100138009E289F28A7288D1CA228A328A728863197
:10014800E1268031A7287E1009008031AB28F00114
:10015800F101F201F301F401F501A030840000304F
:10016800850040308631D12680312030840001302E
:10017800850020308631D12680317E1020008431E0
:100188001B2C2000C7002100C91BCB28CC28D02855
:10019800FD30CA05FF30CB054908803A2000C6006B
:1001A80080304602031DDB28013021004802031875
:1001B800DE28DF28E52801302000C8000030C9000B
:1001C800ED28210049082000C90021004808200026
:1001D800C800210047082000CB0021004608200065
:1001E800CA003E08CC003F08CD004008CE004108B8
:1001F800CF004208D0004308D1004408D200450887
:10020800D3001F30D4000030D5002200BF016D2973
:10021800FF302000D407FF30D53D0A30A000A101EF
:10022800A201A301A401A501A601A7014C08A800E9
:100238004D08A9004E08AA004F08AB005008AC00B2
:100248005108AD005208AE005308AF008231FB22BE
:10025800803120002008303EC6005408203E860029
:100268000130870046088100FF30C807FF30C93DCC
:10027800FF30CA07FF30CB3D0A30A000A101A20120
:10028800A301A401A501A601A7014C08A8004D08D7
:10029800A9004E08AA004F08AB005008AC0051084E
:1002A800AD005208AE005308AF008231772280318A
:1002B80020002008CC002108CD002208CE00230809
:1002C800CF002408D0002508D1002608D20027082E
:1002D800D300200054085504031973297429A02950
:1002E8004C084D044E044F04500451045204530466
:1002F800031D7F2980290C294908803AC6008030CF
:100308004602031D89290130480203188C298D29CA
:100318000C2920004B08803AC60080304602031D95
:10032800972901304A02031C9A299B29A0292100F8
:10033800CA189F29A0290C2920005408203EC6006D
:100348004608B5004B08B7004A08B600470883318D
:100358006C23803120003608BF003508BE00080035
:100368002000E500560886008701403FD800413F3D
:10037800D90058088400590885001200253A031D41
:10038800C629C729532A56088600870101308107E4
:1003980041310318810A2100C601C701CA01CB01F6
:1003A800FF30C800FF30C9002000560886008701CA
:1003B800403FD800413FD9005808840059088500BB
:1003C8001200753A031DE929EA291E2A56088600F3
:1003D80087010130810741310318810A57088600D7
:1003E800870101088400850102308107003FDD0094
:1003F800013FDE00DF01E001E101E201E301E40188
:100408005D08BE005E08BF005F08C0006008C1004C
:100418006108C2006208C3006308C4006408C5001C
:1004280065088031C520813120003F08D7003E088B
:10043800D600762A560886008701403FD800413FFB
:10044800D90058088400590885001200253A031D70
:100458002E2A2F2A482A560886008701013081074C
:1004680041310318810A2530A5000030A60065082F
:10047800D8005808A7008431632481310130200056
:10048800D6000030D700762A56088600870101304A
:10049800810741310318810AD601D701762A560807
:1004A80086008701403FD800413FD90058088400A2
:1004B800590885000008DA00DB015A08A5005B0826
:1004C800A6006508DC005C08A7008431632481313C
:1004D8002000560886008701013081074131031842
:1004E800810A422A0800313086000030870008302F
:1004F8002000B00000301E00B00B7F2A2008210425
:1005080022042304240425042604270403198D2A1D
:100518008E2AEA2AB901B90A9D2AA035A10DA20D91
:10052800A30DA40DA50DA60DA70D0130B000300830
:10053800B907A71FA02AA12A912AB135B20DB30D78
:10054800B40DB50DB60DB70DB80D27082F02031D54
:10055800C72A26082E02031DC72A25082D02031DB7
:10056800C72A24082C02031DC72A23082B02031DAF
:10057800C72A22082A02031DC72A21082902031DA7
:10058800C72A20082802031CCA2ACB2ADC2A2008EA
:10059800A8022108A93B2208AA3B2308AB3B240850
:1005A800AC3B2508AD3B2608AE3B2708AF3B3114D2
:1005B800A736A60CA50CA40CA30CA20CA10CA00C8D
:1005C8000130B902031DE92AEA2AA12A3108A0004C
:1005D8003208A1003308A2003408A3003508A4009B
:1005E8003608A5003708A6003808A700080020002C
:1005F80020082104220423042404250426042704B3
:100608000319072B082B5B2BB101B10A172BA03557
:10061800A10DA20DA30DA40DA50DA60DA70D0130CA
:10062800B0003008B107A71F1A2B1B2B0B2B27086C
:100638002F02031D392B26082E02031D392B2508EE
:100648002D02031D392B24082C02031D392B2308E6
:100658002B02031D392B22082A02031D392B2108DE
:100668002902031D392B20082802031C3C2B3D2B93
:100678004D2B2008A8022108A93B2208AA3B2308E1
:10068800AB3B2408AC3B2508AD3B2608AE3B27080E
:10069800AF3BA736A60CA50CA40CA30CA20CA10C6E
:1006A800A00C0130B102031D5A2B5B2B1B2B280811
:1006B800A0002908A1002A08A2002B08A3002C08E2
:1006C800A4002D08A5002E08A6002F08A7000800E2
:1006D8002000BD0021004A1C722B732B7C2B2000AC
:1006E8003D08B8003808AD0035088531A5258331A7
:1006F8002000B71B802B812B862B3708BC003608BF
:10070800BB00882BBB01BC01B901BA019C2B20306E
:100718002000A5000030A6003D08B8003808A70052
:1007280084316324833101302000B9070030BA3D99
:100738003A08803AB8003C08803A3802031DA62BD4
:100748003B083902031CA92BAA2B8B2B21004A1822
:10075800AE2BAF2BB82B20003D08B8003808AD00F1
:1007680035088531A52583312000350886311626C0
:10077800833120003B082007B5003C08213DB60026
:1007880008007235A03E860087010030C03FC13F97
:1007980022009D1CD02BD12BE22B7235A03E860067
:1007A800870101152100520853040319DC2BDD2BA6
:1007B800E22B53088A0052080A00833122001D1DCB
:1007C800E62BE72BF82B7235A03E860087018114B3
:1007D8002100540855040319F22BF32BF82B550864
:1007E8008A0054080A00833122001908F6007608A6
:1007F800F7007208013E0739F6007608F800780815
:100808007106031D082C092C0A2C1A2C7708F600EF
:100818007208B03E86008701760881007808F600E5
:100828007608F2000130F6007608F00708008631F5
:100838007D2684318B170B178631DE2684310B30E9
:100848002100E6006230890B272CE60B272C0000DC
:10085800043086315A268431200021082100DD0029
:10086800200020082100DC008631DB26843100309E
:1008780020008C1A01302100DF006D30E000863046
:10088800E1005F08E600E7016608E2006708E300A8
:100898005D08E5005C08E4008631312684311530B6
:1008A8002100E7004B30E600BE30890B592CE60BDF
:1008B800592CE70B592C0000202C8031A928200046
:1008C80027080319682C692C6E2C2708031D6D2C2A
:1008D8006E2C732C2508863147268431A52C2708D1
:1008E800083E860087011600010403197C2C7D2C24
:1008F8009B2C2708083E86008701403FA800413FFF
:10090800A9002708023E86008701403FAA00413F10
:10091800AB002B08803AAC002908803A2C02031D52
:10092800972C28082A0203189A2C9B2CA52C200007
:100938002708023E860087010130810741310318EC
:10094800810A08002000960197019801F030910073
:10095800FF309200FE309300D0303E00B800FF30E8
:10096800C300FC30CE00B901C401CF01E501BA01D2
:10097800C501D001FF30BB00FF30C600FF30D100F9
:10098800FF30BC00FF30C700FF30D2000830E8005D
:1009980011303D00CB0010303E00A000BD01BE016B
:1009A800BF01C801C901CA01D301D401D501E901B8
:1009B800EA01EB0108002E009912C5302100E80079
:1009C8000330E9002E001912F7302100EA00053043
:1009D800EB00483022009F0090309D0026309E009A
:1009E80040309B0003309C00E7302000A000063018
:1009F800A10086319C268431D7302000A000063023
:100A0800A10086318D2684312100DA01DB01F50150
:100A1800F40108302000A2002208F300F201F101DD
:100A2800F0012E00991608002000EB006708ED0081
:100A38006608EC002100C401C501362D6C30E900C0
:100A48006908D6006808EA006A08D7006B0881318F
:100A5800B4218531200056082100C407200057081A
:100A68002100C53D20006C0884006D088500120037
:100A7800031D3F2D402D222D210045082000E700B1
:100A8800210044082000E6000800DF340434003464
:100A9800003400340034CE34053400340034C93412
:100AA8000634003400340034003400340034003498
:100AB800003400340034003400340034003400348E
:100AC800003400340034003400340034003400347E
:100AD800003400340034003400349C3406348D343F
:100AE80006340034003400340034210093132E00FF
:100AF800171097100D108D102100D001D101CE01D3
:100B0800CF01DE0122008E018F0190019101920137
:100B180093018D013C3021009E009D019B019C01A9
:100B28009401183095001030960097019A010F3003
:100B3800980099012E001710971084302100930017
:100B480008002000B400B201B301BD2D3108AE0089
:100B5800AF012E08A5002F08A6002D08B000300808
:100B6800A70084316324853101302000B2070030AA
:100B7800B33D32083407AE002E08860001308700E6
:100B88000108AF002F08B1003108031DCC2DCD2D71
:100B9800AA2D08002E00191AD22DD32DD82D2000E9
:100BA800200822009A00F42D73080319DC2DDD2D8E
:100BB800F42D20002008A1007508B83E86008701A2
:100BC800210881007508013E0739A1002108A2000B
:100BD8002208A1002108F5002E0019120130F302A5
:100BE8002E0019160800083073020318FC2DFD2D7D
:100BF800132E7408B83E86008701010822009A0067
:100C08007408013E0739F6007608F7007708F60001
:100C18007608F4000130F6007608F307152E2E004A
:100C2800191208002000A4002408A2002208A3002A
:100C3800212E0130A2002208A407240886000130D2
:100C480087000108031D292E2A2E1D2E23082402A1
:100C5800A000A101A01BA1030800E2302000EE00C3
:100C68006E08EF00210061082000E70021006008FD
:100C78002000E6006F30EE006E08E8000030853195
:100C88001825863108002000A4008631C92686313F
:100C9800003A0319502E512E492E20002408A30093
:100CA8002308A0008531CE25863108002000A20047
:100CB800220821009E00131313141318642E652EA6
:100CC800612E0D082000A10021000C082000A000C2
:100CD8000800423454344E343A34253475342C34B4
:100CE8004134443443343A34253475340A340D34A9
:100CF80000348631C02686318431A6248631853178
:100D0800792586318431DF2486318631AB268631D8
:100D180008002000200821040319932E942E9B2EEE
:100D280021082100D300200020082100D20008005B
:100D38002000200821040319A22EA32EAA2E210880
:100D48002100D500200020082100D40008002E0032
:100D58000C100B1400302000A0000030A1008631D8
:100D6800B72686310800200021082100CD00200088
:100D780020082100CC000800603031008D008F0170
:100D8800910106309300920108007308031DCD2ECF
:100D9800CF2E0130D02E00300800640080010131D0
:100DA800890BD22E003422001D121D1608002100C6
:100DB800131008002100131408002E008D100800DD
:080DC8002E000D1008000800C8
:020000040001F9
:0A000E008F3FFF3F9F3FFF3FFF3F82
:00000001FF
